:060000000A128A11122809
:10000800FE00030EF1000408F2000A08F300831250
:1000180003137F08F4000A128A111D280A128A1194
:100028001528F501F601F701F80183010A128A1172
:1000380059288C1C202821284E280130F70703183E
:10004800F80A0030F807F4307706031D2F287803E4
:10005800031D2F28302843287508F0007007013E3B
:1000680084000A128A117E200A128A118600013041
:10007800F5070318F60A0030F607F701F8010A3009
:1000880075067604031D49284A284C28F501F6010F
:1000980091018C107408FF0073088A0072088400AC
:1000A800710E8300FE0E7E0E09000A128A11982036
:1000B8000A128A11831203131215121792121212BE
:1000C8009215921012108B170B17831603138C14AA
:1000D800831203138C1083160313860183120313F0
:1000E80086019101C8308316031392007A280A12F8
:1000F8008A11122800308A000408840A8207003412
:100108003F340034063400345B3400344F34003458
:10011800663400346D3400347C34003407340034E1
:0A0128007F3400346F340034080007
:02400E003B3F36
:00000001FF
