:060000000A128A11FC2F18
:100F40008316031386018312031386010130FB000D
:100F50000030FC00F701F8017B08831203138600C0
:100F600003107B0DFB007C0DFC000230F60004300A
:100F7000F500BA30F400F40BBB2FF50BBB2FF60BCA
:100F8000BB2F00000130F7070318F80A0030F807FC
:100F900000307802083003197702031CD02FD12FBC
:100FA000AC2FF901FA017B088312031386007C0D34
:100FB0007C0CFC007B0CFB000230F6000430F500DA
:100FC000BA30F400F40BE22FF50BE22FF60BE22F10
:100FD00000000130F9070318FA0A0030FA07003060
:100FE0007A02083003197902031CF72FF82FD32F48
:100FF000AA2F0A128A11002883010A128A11A02F2F
:02400E003B3F36
:00000001FF
