:060000000A128A110C280F
:10000800FE00030EF3000A08F4000A128A111328EE
:100018000A128A110F2883010A128A11562883129C
:10002800031386010B1C19281A282D28061E1D28C3
:100038001E282D2806141030F2003930F1000D303A
:10004800F000F00B2528F10B2528F20B25282C2889
:100058004E280B1C302831283728861E342835288E
:10006800372886141F280B1C3A283B284128061FCE
:100078003E283F28412806151F280B1C44284528E0
:100088004E28861F482849284E280730F000700857
:1000980086041F280B1074088A00730E8300FE0E56
:1000A8007E0E09000A128A1172200A128A11F03093
:1000B8008316031386008312031386010A128A111A
:1000C8006F200A128A1183120313861406156728F3
:0E00D8000A128A110C288B178B1508000800DD
:02400E003B3F36
:00000001FF
