:060000000A128A110C280F
:10000800FE00030EF1000A08F2000A128A113228D3
:100018000A128A110F28F70183010A128A1114287B
:100028000A128A114B200A128A1183160313051625
:1000380086018312031386018B178B16831603130D
:10004800011281168111011181100110FD308312F6
:10005800031381002E280A128A110C28FD308312FE
:10006800031381000130F0007008F7077708860055
:1000780002307706031D412842284328F7010B1157
:1000880072088A00710E8300FE0E7E0E09000800B9
:02400E003B3F36
:00000001FF
