:060000000A128A110C280F
:10000800FE00030EF1000A08F2000A128A111528F0
:100018000A128A110F28F701F80183010A128A11BE
:100028003C280B30831203138F00DB308E00013025
:10003800F7070318F80A0030F8070830770678043D
:10004800031D27282828342806080139F000013024
:10005800F00606087006FE3970068600F701F801FA
:100068000C1072088A00710E8300FE0E7E0E0900C5
:100078000A128A115A200A128A11831603130610CB
:100088008312031386018B170B1710149010901608
:100098001012831603130C140B30831203138F00F2
:0E00A800DB308E0056280A128A110C28080040
:02400E003B3F36
:00000001FF
