:060000000A128A110C280F
:10000800FE00030EF0000A08F1000A128A111528F2
:100018000A128A110F28F701F80183010A128A11BE
:100028003F280B1D18281928232814307706780430
:10003800031D1F28202823288312031306140B1DD1
:10004800262827283328283077067804031D2D28EA
:100058002E283328831203130610F701F8013B30CA
:100068008312031381000B1171088A00700E83003C
:10007800FE0E7E0E09000A128A115C200A128A11ED
:100088008B178B1683160313811281110730F60024
:10009800760881043B30831203138100831603130F
:1000A800061083120313860158280A128A110C2895
:0200B80008003E
:02400E003B3F36
:00000001FF
