:060000000A128A110C280F
:10000800FE00030EF3000A08F4000A128A114628BB
:100018000A128A110F2883010A128A1113280A1258
:100028008A116B200A128A1183160313061486108C
:1000380086138312031386010A128A1165200A1295
:100048008A11031083120313861C031403182D2826
:10005800312883120313861434288312031386105D
:10006800103083120313A2003930A1000D30A00014
:10007800A00B3C28A10B3C28A20B3C2825280A12DF
:100088008A110C288B1C49284A285A2883120313E2
:1000980086171A30F2005E30F1006E30F000F00B77
:1000A8005328F10B5328F20B532800008312031333
:1000B80086138B1074088A00730E8300FE0E7E0E62
:1000C80009008B170B168316031301130800080089
:02400E003B3F36
:00000001FF
